{
	"data": {
		"bytecode": {
			"linkReferences": {
				"B219889_part2.sol": {
					"DeployedLibrary": [
						{
							"length": 20,
							"start": 5432
						}
					]
				}
			},
			"object": "60e06040523480156200001157600080fd5b5060405162001d2d38038062001d2d83398181016040528101906200003791906200024c565b7f30000000000000000000000000000000000000000000000000000000000000006000806101000a81548160ff021916908360f81c021790555033600460006101000a81548173ffffffffffffffffffffffffffffffffffffffff021916908373ffffffffffffffffffffffffffffffffffffffff1602179055508460029080519060200190620000ca92919062000107565b508360039080519060200190620000e392919062000107565b508160a0818152505082608081815250508060c081815250505050505050620004ba565b8280546200011590620003b1565b90600052602060002090601f01602090048101928262000139576000855562000185565b82601f106200015457805160ff191683800117855562000185565b8280016001018555821562000185579182015b828111156200018457825182559160200191906001019062000167565b5b50905062000194919062000198565b5090565b5b80821115620001b357600081600090555060010162000199565b5090565b6000620001ce620001c8846200033b565b62000312565b905082815260208101848484011115620001ed57620001ec62000480565b5b620001fa8482856200037b565b509392505050565b600082601f8301126200021a57620002196200047b565b5b81516200022c848260208601620001b7565b91505092915050565b6000815190506200024681620004a0565b92915050565b600080600080600060a086880312156200026b576200026a6200048a565b5b600086015167ffffffffffffffff8111156200028c576200028b62000485565b5b6200029a8882890162000202565b955050602086015167ffffffffffffffff811115620002be57620002bd62000485565b5b620002cc8882890162000202565b9450506040620002df8882890162000235565b9350506060620002f28882890162000235565b9250506080620003058882890162000235565b9150509295509295909350565b60006200031e62000331565b90506200032c8282620003e7565b919050565b6000604051905090565b600067ffffffffffffffff8211156200035957620003586200044c565b5b62000364826200048f565b9050602081019050919050565b6000819050919050565b60005b838110156200039b5780820151818401526020810190506200037e565b83811115620003ab576000848401525b50505050565b60006002820490506001821680620003ca57607f821691505b60208210811415620003e157620003e06200041d565b5b50919050565b620003f2826200048f565b810181811067ffffffffffffffff821117156200041457620004136200044c565b5b80604052505050565b7f4e487b7100000000000000000000000000000000000000000000000000000000600052602260045260246000fd5b7f4e487b7100000000000000000000000000000000000000000000000000000000600052604160045260246000fd5b600080fd5b600080fd5b600080fd5b600080fd5b6000601f19601f8301169050919050565b620004ab8162000371565b8114620004b757600080fd5b50565b60805160a05160c051611835620004f860003960008181610b810152610f290152600081816108c10152610f9d015260006104f301526118356000f3fe6080604052600436106100955760003560e01c806370a082311161005957806370a08231146102095780638da5cb5b1461024657806398d5fdca14610271578063a9059cbb1461029c578063e4849b32146102d9576100df565b8063150704011461013457806317d7de7c1461015f57806318160ddd1461018a57806340c10f19146101b557806343d726d6146101f2576100df565b366100df573373ffffffffffffffffffffffffffffffffffffffff167fb69dbb3426fce493612cfd8266f1d814871a73dacb08c4195d2c9bcba69519c360405160405180910390a2005b3480156100eb57600080fd5b5060008036905014610132576040517f08c379a0000000000000000000000000000000000000000000000000000000008152600401610129906114fa565b60405180910390fd5b005b34801561014057600080fd5b50610149610316565b60405161015691906114d8565b60405180910390f35b34801561016b57600080fd5b506101746103a8565b60405161018191906114d8565b60405180910390f35b34801561019657600080fd5b5061019f61043a565b6040516101ac919061151a565b60405180910390f35b3480156101c157600080fd5b506101dc60048036038101906101d79190611361565b610444565b6040516101e991906114bd565b60405180910390f35b3480156101fe57600080fd5b50610207610747565b005b34801561021557600080fd5b50610230600480360381019061022b9190611334565b61084b565b60405161023d919061151a565b60405180910390f35b34801561025257600080fd5b5061025b610897565b60405161026891906114a2565b60405180910390f35b34801561027d57600080fd5b506102866108bd565b604051610293919061151a565b60405180910390f35b3480156102a857600080fd5b506102c360048036038101906102be9190611361565b6108e5565b6040516102d091906114bd565b60405180910390f35b3480156102e557600080fd5b5061030060048036038101906102fb91906113ce565b610d2f565b60405161030d91906114bd565b60405180910390f35b606060038054610325906116eb565b80601f0160208091040260200160405190810160405280929190818152602001828054610351906116eb565b801561039e5780601f106103735761010080835404028352916020019161039e565b820191906000526020600020905b81548152906001019060200180831161038157829003601f168201915b5050505050905090565b6060600280546103b7906116eb565b80601f01602080910402602001604051908101604052809291908181526020018280546103e3906116eb565b80156104305780601f1061040557610100808354040283529160200191610430565b820191906000526020600020905b81548152906001019060200180831161041357829003601f168201915b5050505050905090565b6000600154905090565b600082600073ffffffffffffffffffffffffffffffffffffffff168173ffffffffffffffffffffffffffffffffffffffff1614156040518060400160405280601b81526020017f5a65726f2061646472657373206973206e6f7420616c6c6f7765640000000000815250906104ef576040517f08c379a00000000000000000000000000000000000000000000000000000000081526004016104e691906114d8565b60405180910390fd5b50827f000000000000000000000000000000000000000000000000000000000000000081600154610520919061157a565b11156040518060400160405280601681526020017f4d6178696d756d20737570706c7920726561636865640000000000000000000081525090610599576040517f08c379a000000000000000000000000000000000000000000000000000000000815260040161059091906114d8565b60405180910390fd5b506105a26111b3565b600460009054906101000a900473ffffffffffffffffffffffffffffffffffffffff1673ffffffffffffffffffffffffffffffffffffffff163373ffffffffffffffffffffffffffffffffffffffff16146040518060400160405280601881526020017f41636365737369626c65206f6e6c79206279206f776e657200000000000000008152509061066a576040517f08c379a000000000000000000000000000000000000000000000000000000000815260040161066191906114d8565b60405180910390fd5b50836001600082825461067d919061157a565b9250508190555083600560008773ffffffffffffffffffffffffffffffffffffffff1673ffffffffffffffffffffffffffffffffffffffff16815260200190815260200160002060000160008282546106d6919061157a565b925050819055508473ffffffffffffffffffffffffffffffffffffffff167f0f6798a560793a54c3bcfe86a93cde1e73087d944c0ea20544137d412139688585604051610723919061151a565b60405180910390a260009450600093506001925061073f6112b9565b505092915050565b600460009054906101000a900473ffffffffffffffffffffffffffffffffffffffff1673ffffffffffffffffffffffffffffffffffffffff163373ffffffffffffffffffffffffffffffffffffffff16146040518060400160405280601881526020017f41636365737369626c65206f6e6c79206279206f776e657200000000000000008152509061080f576040517f08c379a000000000000000000000000000000000000000000000000000000000815260040161080691906114d8565b60405180910390fd5b50600460009054906101000a900473ffffffffffffffffffffffffffffffffffffffff1673ffffffffffffffffffffffffffffffffffffffff16ff5b6000600560008373ffffffffffffffffffffffffffffffffffffffff1673ffffffffffffffffffffffffffffffffffffffff168152602001908152602001600020600001549050919050565b600460009054906101000a900473ffffffffffffffffffffffffffffffffffffffff1681565b60007f0000000000000000000000000000000000000000000000000000000000000000905090565b600033600073ffffffffffffffffffffffffffffffffffffffff168173ffffffffffffffffffffffffffffffffffffffff1614156040518060400160405280601b81526020017f5a65726f2061646472657373206973206e6f7420616c6c6f776564000000000081525090610990576040517f08c379a000000000000000000000000000000000000000000000000000000000815260040161098791906114d8565b60405180910390fd5b5083600073ffffffffffffffffffffffffffffffffffffffff168173ffffffffffffffffffffffffffffffffffffffff1614156040518060400160405280601b81526020017f5a65726f2061646472657373206973206e6f7420616c6c6f776564000000000081525090610a3a576040517f08c379a0000000000000000000000000000000000000000000000000000000008152600401610a3191906114d8565b60405180910390fd5b50338480610a478361084b565b10156040518060400160405280601481526020017f496e73756666696369656e742062616c616e636500000000000000000000000081525090610ac0576040517f08c379a0000000000000000000000000000000000000000000000000000000008152600401610ab791906114d8565b60405180910390fd5b5033600560008273ffffffffffffffffffffffffffffffffffffffff1673ffffffffffffffffffffffffffffffffffffffff1681526020019081526020016000206001015442116040518060400160405280601281526020017f57696e646f772074696d65206c6f636b6564000000000000000000000000000081525090610b7e576040517f08c379a0000000000000000000000000000000000000000000000000000000008152600401610b7591906114d8565b60405180910390fd5b507f000000000000000000000000000000000000000000000000000000000000000042610bab919061157a565b600560008373ffffffffffffffffffffffffffffffffffffffff1673ffffffffffffffffffffffffffffffffffffffff16815260200190815260200160002060010181905550610bf96111b3565b86600560003373ffffffffffffffffffffffffffffffffffffffff1673ffffffffffffffffffffffffffffffffffffffff1681526020019081526020016000206000016000828254610c4b919061162a565b9250508190555086600560008a73ffffffffffffffffffffffffffffffffffffffff1673ffffffffffffffffffffffffffffffffffffffff1681526020019081526020016000206000016000828254610ca4919061157a565b925050819055508773ffffffffffffffffffffffffffffffffffffffff163373ffffffffffffffffffffffffffffffffffffffff167fddf252ad1be2c89b69c2b068fc378daa952ba7f163c4a11628f55a4df523b3ef89604051610d08919061151a565b60405180910390a3600097506000965060019550610d246112b9565b505050505092915050565b600033600073ffffffffffffffffffffffffffffffffffffffff168173ffffffffffffffffffffffffffffffffffffffff1614156040518060400160405280601b81526020017f5a65726f2061646472657373206973206e6f7420616c6c6f776564000000000081525090610dda576040517f08c379a0000000000000000000000000000000000000000000000000000000008152600401610dd191906114d8565b60405180910390fd5b50610de36111b3565b338380610def8361084b565b10156040518060400160405280601481526020017f496e73756666696369656e742062616c616e636500000000000000000000000081525090610e68576040517f08c379a0000000000000000000000000000000000000000000000000000000008152600401610e5f91906114d8565b60405180910390fd5b5033600560008273ffffffffffffffffffffffffffffffffffffffff1673ffffffffffffffffffffffffffffffffffffffff1681526020019081526020016000206001015442116040518060400160405280601281526020017f57696e646f772074696d65206c6f636b6564000000000000000000000000000081525090610f26576040517f08c379a0000000000000000000000000000000000000000000000000000000008152600401610f1d91906114d8565b60405180910390fd5b507f000000000000000000000000000000000000000000000000000000000000000042610f53919061157a565b600560008373ffffffffffffffffffffffffffffffffffffffff1673ffffffffffffffffffffffffffffffffffffffff1681526020019081526020016000206001018190555060007f000000000000000000000000000000000000000000000000000000000000000087610fc791906115d0565b90508660016000828254610fdb919061162a565b9250508190555086600560003373ffffffffffffffffffffffffffffffffffffffff1673ffffffffffffffffffffffffffffffffffffffff1681526020019081526020016000206000016000828254611034919061162a565b9250508190555060008173__$84e30444d26b6d8558c6e85411a98adc4a$__63c0ba8f429091336040518363ffffffff1660e01b8152600401611078929190611535565b60206040518083038186803b15801561109057600080fd5b505af41580156110a4573d6000803e3d6000fd5b505050506040513d601f19601f820116820180604052508101906110c891906113a1565b9050806040518060400160405280601381526020017f576569207472616e73666572206661696c65640000000000000000000000000081525090611142576040517f08c379a000000000000000000000000000000000000000000000000000000000815260040161113991906114d8565b60405180910390fd5b503373ffffffffffffffffffffffffffffffffffffffff167f5e5e995ce3133561afceaa51a9a154d5db228cd7525d34df5185582c18d3df0989604051611189919061151a565b60405180910390a260009150600097506000905080965050505050506111ad6112b9565b50919050565b7f300000000000000000000000000000000000000000000000000000000000000060008054906101000a900460f81b7effffffffffffffffffffffffffffffffffffffffffffffffffffffffffffff1916146040518060400160405280600e81526020017f5265656e7472616e6379204c6f670000000000000000000000000000000000008152509061127c576040517f08c379a000000000000000000000000000000000000000000000000000000000815260040161127391906114d8565b60405180910390fd5b507f31000000000000000000000000000000000000000000000000000000000000006000806101000a81548160ff021916908360f81c0217905550565b7f30000000000000000000000000000000000000000000000000000000000000006000806101000a81548160ff021916908360f81c0217905550565b600081359050611304816117ba565b92915050565b600081519050611319816117d1565b92915050565b60008135905061132e816117e8565b92915050565b60006020828403121561134a5761134961177b565b5b6000611358848285016112f5565b91505092915050565b600080604083850312156113785761137761177b565b5b6000611386858286016112f5565b92505060206113978582860161131f565b9150509250929050565b6000602082840312156113b7576113b661177b565b5b60006113c58482850161130a565b91505092915050565b6000602082840312156113e4576113e361177b565b5b60006113f28482850161131f565b91505092915050565b61140481611670565b82525050565b6114138161165e565b82525050565b61142281611682565b82525050565b60006114338261155e565b61143d8185611569565b935061144d8185602086016116b8565b61145681611780565b840191505092915050565b600061146e600e83611569565b915061147982611791565b602082019050919050565b61148d816116ae565b82525050565b61149c816116ae565b82525050565b60006020820190506114b760008301846113fb565b92915050565b60006020820190506114d26000830184611419565b92915050565b600060208201905081810360008301526114f28184611428565b905092915050565b6000602082019050818103600083015261151381611461565b9050919050565b600060208201905061152f6000830184611484565b92915050565b600060408201905061154a6000830185611493565b611557602083018461140a565b9392505050565b600081519050919050565b600082825260208201905092915050565b6000611585826116ae565b9150611590836116ae565b9250827fffffffffffffffffffffffffffffffffffffffffffffffffffffffffffffffff038211156115c5576115c461171d565b5b828201905092915050565b60006115db826116ae565b91506115e6836116ae565b9250817fffffffffffffffffffffffffffffffffffffffffffffffffffffffffffffffff048311821515161561161f5761161e61171d565b5b828202905092915050565b6000611635826116ae565b9150611640836116ae565b9250828210156116535761165261171d565b5b828203905092915050565b60006116698261168e565b9050919050565b600061167b8261168e565b9050919050565b60008115159050919050565b600073ffffffffffffffffffffffffffffffffffffffff82169050919050565b6000819050919050565b60005b838110156116d65780820151818401526020810190506116bb565b838111156116e5576000848401525b50505050565b6000600282049050600182168061170357607f821691505b602082108114156117175761171661174c565b5b50919050565b7f4e487b7100000000000000000000000000000000000000000000000000000000600052601160045260246000fd5b7f4e487b7100000000000000000000000000000000000000000000000000000000600052602260045260246000fd5b600080fd5b6000601f19601f8301169050919050565b7f46616c6c6261636b206361746368000000000000000000000000000000000000600082015250565b6117c38161165e565b81146117ce57600080fd5b50565b6117da81611682565b81146117e557600080fd5b50565b6117f1816116ae565b81146117fc57600080fd5b5056fea26469706673582212208ae241de3db84b0e475485a567638267fdb64daf43140180c71c6d1a18443a0b64736f6c63430008070033",
			"opcodes": "PUSH1 0xE0 PUSH1 0x40 MSTORE CALLVALUE DUP1 ISZERO PUSH3 0x11 JUMPI PUSH1 0x0 DUP1 REVERT JUMPDEST POP PUSH1 0x40 MLOAD PUSH3 0x1D2D CODESIZE SUB DUP1 PUSH3 0x1D2D DUP4 CODECOPY DUP2 DUP2 ADD PUSH1 0x40 MSTORE DUP2 ADD SWAP1 PUSH3 0x37 SWAP2 SWAP1 PUSH3 0x24C JUMP JUMPDEST PUSH32 0x3000000000000000000000000000000000000000000000000000000000000000 PUSH1 0x0 DUP1 PUSH2 0x100 EXP DUP2 SLOAD DUP2 PUSH1 0xFF MUL NOT AND SWAP1 DUP4 PUSH1 0xF8 SHR MUL OR SWAP1 SSTORE POP CALLER PUSH1 0x4 PUSH1 0x0 PUSH2 0x100 EXP DUP2 SLOAD DUP2 PUSH20 0xFFFFFFFFFFFFFFFFFFFFFFFFFFFFFFFFFFFFFFFF MUL NOT AND SWAP1 DUP4 PUSH20 0xFFFFFFFFFFFFFFFFFFFFFFFFFFFFFFFFFFFFFFFF AND MUL OR SWAP1 SSTORE POP DUP5 PUSH1 0x2 SWAP1 DUP1 MLOAD SWAP1 PUSH1 0x20 ADD SWAP1 PUSH3 0xCA SWAP3 SWAP2 SWAP1 PUSH3 0x107 JUMP JUMPDEST POP DUP4 PUSH1 0x3 SWAP1 DUP1 MLOAD SWAP1 PUSH1 0x20 ADD SWAP1 PUSH3 0xE3 SWAP3 SWAP2 SWAP1 PUSH3 0x107 JUMP JUMPDEST POP DUP2 PUSH1 0xA0 DUP2 DUP2 MSTORE POP POP DUP3 PUSH1 0x80 DUP2 DUP2 MSTORE POP POP DUP1 PUSH1 0xC0 DUP2 DUP2 MSTORE POP POP POP POP POP POP POP PUSH3 0x4BA JUMP JUMPDEST DUP3 DUP1 SLOAD PUSH3 0x115 SWAP1 PUSH3 0x3B1 JUMP JUMPDEST SWAP1 PUSH1 0x0 MSTORE PUSH1 0x20 PUSH1 0x0 KECCAK256 SWAP1 PUSH1 0x1F ADD PUSH1 0x20 SWAP1 DIV DUP2 ADD SWAP3 DUP3 PUSH3 0x139 JUMPI PUSH1 0x0 DUP6 SSTORE PUSH3 0x185 JUMP JUMPDEST DUP3 PUSH1 0x1F LT PUSH3 0x154 JUMPI DUP1 MLOAD PUSH1 0xFF NOT AND DUP4 DUP1 ADD OR DUP6 SSTORE PUSH3 0x185 JUMP JUMPDEST DUP3 DUP1 ADD PUSH1 0x1 ADD DUP6 SSTORE DUP3 ISZERO PUSH3 0x185 JUMPI SWAP2 DUP3 ADD JUMPDEST DUP3 DUP2 GT ISZERO PUSH3 0x184 JUMPI DUP3 MLOAD DUP3 SSTORE SWAP2 PUSH1 0x20 ADD SWAP2 SWAP1 PUSH1 0x1 ADD SWAP1 PUSH3 0x167 JUMP JUMPDEST JUMPDEST POP SWAP1 POP PUSH3 0x194 SWAP2 SWAP1 PUSH3 0x198 JUMP JUMPDEST POP SWAP1 JUMP JUMPDEST JUMPDEST DUP1 DUP3 GT ISZERO PUSH3 0x1B3 JUMPI PUSH1 0x0 DUP2 PUSH1 0x0 SWAP1 SSTORE POP PUSH1 0x1 ADD PUSH3 0x199 JUMP JUMPDEST POP SWAP1 JUMP JUMPDEST PUSH1 0x0 PUSH3 0x1CE PUSH3 0x1C8 DUP5 PUSH3 0x33B JUMP JUMPDEST PUSH3 0x312 JUMP JUMPDEST SWAP1 POP DUP3 DUP2 MSTORE PUSH1 0x20 DUP2 ADD DUP5 DUP5 DUP5 ADD GT ISZERO PUSH3 0x1ED JUMPI PUSH3 0x1EC PUSH3 0x480 JUMP JUMPDEST JUMPDEST PUSH3 0x1FA DUP5 DUP3 DUP6 PUSH3 0x37B JUMP JUMPDEST POP SWAP4 SWAP3 POP POP POP JUMP JUMPDEST PUSH1 0x0 DUP3 PUSH1 0x1F DUP4 ADD SLT PUSH3 0x21A JUMPI PUSH3 0x219 PUSH3 0x47B JUMP JUMPDEST JUMPDEST DUP2 MLOAD PUSH3 0x22C DUP5 DUP3 PUSH1 0x20 DUP7 ADD PUSH3 0x1B7 JUMP JUMPDEST SWAP2 POP POP SWAP3 SWAP2 POP POP JUMP JUMPDEST PUSH1 0x0 DUP2 MLOAD SWAP1 POP PUSH3 0x246 DUP2 PUSH3 0x4A0 JUMP JUMPDEST SWAP3 SWAP2 POP POP JUMP JUMPDEST PUSH1 0x0 DUP1 PUSH1 0x0 DUP1 PUSH1 0x0 PUSH1 0xA0 DUP7 DUP9 SUB SLT ISZERO PUSH3 0x26B JUMPI PUSH3 0x26A PUSH3 0x48A JUMP JUMPDEST JUMPDEST PUSH1 0x0 DUP7 ADD MLOAD PUSH8 0xFFFFFFFFFFFFFFFF DUP2 GT ISZERO PUSH3 0x28C JUMPI PUSH3 0x28B PUSH3 0x485 JUMP JUMPDEST JUMPDEST PUSH3 0x29A DUP9 DUP3 DUP10 ADD PUSH3 0x202 JUMP JUMPDEST SWAP6 POP POP PUSH1 0x20 DUP7 ADD MLOAD PUSH8 0xFFFFFFFFFFFFFFFF DUP2 GT ISZERO PUSH3 0x2BE JUMPI PUSH3 0x2BD PUSH3 0x485 JUMP JUMPDEST JUMPDEST PUSH3 0x2CC DUP9 DUP3 DUP10 ADD PUSH3 0x202 JUMP JUMPDEST SWAP5 POP POP PUSH1 0x40 PUSH3 0x2DF DUP9 DUP3 DUP10 ADD PUSH3 0x235 JUMP JUMPDEST SWAP4 POP POP PUSH1 0x60 PUSH3 0x2F2 DUP9 DUP3 DUP10 ADD PUSH3 0x235 JUMP JUMPDEST SWAP3 POP POP PUSH1 0x80 PUSH3 0x305 DUP9 DUP3 DUP10 ADD PUSH3 0x235 JUMP JUMPDEST SWAP2 POP POP SWAP3 SWAP6 POP SWAP3 SWAP6 SWAP1 SWAP4 POP JUMP JUMPDEST PUSH1 0x0 PUSH3 0x31E PUSH3 0x331 JUMP JUMPDEST SWAP1 POP PUSH3 0x32C DUP3 DUP3 PUSH3 0x3E7 JUMP JUMPDEST SWAP2 SWAP1 POP JUMP JUMPDEST PUSH1 0x0 PUSH1 0x40 MLOAD SWAP1 POP SWAP1 JUMP JUMPDEST PUSH1 0x0 PUSH8 0xFFFFFFFFFFFFFFFF DUP3 GT ISZERO PUSH3 0x359 JUMPI PUSH3 0x358 PUSH3 0x44C JUMP JUMPDEST JUMPDEST PUSH3 0x364 DUP3 PUSH3 0x48F JUMP JUMPDEST SWAP1 POP PUSH1 0x20 DUP2 ADD SWAP1 POP SWAP2 SWAP1 POP JUMP JUMPDEST PUSH1 0x0 DUP2 SWAP1 POP SWAP2 SWAP1 POP JUMP JUMPDEST PUSH1 0x0 JUMPDEST DUP4 DUP2 LT ISZERO PUSH3 0x39B JUMPI DUP1 DUP3 ADD MLOAD DUP2 DUP5 ADD MSTORE PUSH1 0x20 DUP2 ADD SWAP1 POP PUSH3 0x37E JUMP JUMPDEST DUP4 DUP2 GT ISZERO PUSH3 0x3AB JUMPI PUSH1 0x0 DUP5 DUP5 ADD MSTORE JUMPDEST POP POP POP POP JUMP JUMPDEST PUSH1 0x0 PUSH1 0x2 DUP3 DIV SWAP1 POP PUSH1 0x1 DUP3 AND DUP1 PUSH3 0x3CA JUMPI PUSH1 0x7F DUP3 AND SWAP2 POP JUMPDEST PUSH1 0x20 DUP3 LT DUP2 EQ ISZERO PUSH3 0x3E1 JUMPI PUSH3 0x3E0 PUSH3 0x41D JUMP JUMPDEST JUMPDEST POP SWAP2 SWAP1 POP JUMP JUMPDEST PUSH3 0x3F2 DUP3 PUSH3 0x48F JUMP JUMPDEST DUP2 ADD DUP2 DUP2 LT PUSH8 0xFFFFFFFFFFFFFFFF DUP3 GT OR ISZERO PUSH3 0x414 JUMPI PUSH3 0x413 PUSH3 0x44C JUMP JUMPDEST JUMPDEST DUP1 PUSH1 0x40 MSTORE POP POP POP JUMP JUMPDEST PUSH32 0x4E487B7100000000000000000000000000000000000000000000000000000000 PUSH1 0x0 MSTORE PUSH1 0x22 PUSH1 0x4 MSTORE PUSH1 0x24 PUSH1 0x0 REVERT JUMPDEST PUSH32 0x4E487B7100000000000000000000000000000000000000000000000000000000 PUSH1 0x0 MSTORE PUSH1 0x41 PUSH1 0x4 MSTORE PUSH1 0x24 PUSH1 0x0 REVERT JUMPDEST PUSH1 0x0 DUP1 REVERT JUMPDEST PUSH1 0x0 DUP1 REVERT JUMPDEST PUSH1 0x0 DUP1 REVERT JUMPDEST PUSH1 0x0 DUP1 REVERT JUMPDEST PUSH1 0x0 PUSH1 0x1F NOT PUSH1 0x1F DUP4 ADD AND SWAP1 POP SWAP2 SWAP1 POP JUMP JUMPDEST PUSH3 0x4AB DUP2 PUSH3 0x371 JUMP JUMPDEST DUP2 EQ PUSH3 0x4B7 JUMPI PUSH1 0x0 DUP1 REVERT JUMPDEST POP JUMP JUMPDEST PUSH1 0x80 MLOAD PUSH1 0xA0 MLOAD PUSH1 0xC0 MLOAD PUSH2 0x1835 PUSH3 0x4F8 PUSH1 0x0 CODECOPY PUSH1 0x0 DUP2 DUP2 PUSH2 0xB81 ADD MSTORE PUSH2 0xF29 ADD MSTORE PUSH1 0x0 DUP2 DUP2 PUSH2 0x8C1 ADD MSTORE PUSH2 0xF9D ADD MSTORE PUSH1 0x0 PUSH2 0x4F3 ADD MSTORE PUSH2 0x1835 PUSH1 0x0 RETURN INVALID PUSH1 0x80 PUSH1 0x40 MSTORE PUSH1 0x4 CALLDATASIZE LT PUSH2 0x95 JUMPI PUSH1 0x0 CALLDATALOAD PUSH1 0xE0 SHR DUP1 PUSH4 0x70A08231 GT PUSH2 0x59 JUMPI DUP1 PUSH4 0x70A08231 EQ PUSH2 0x209 JUMPI DUP1 PUSH4 0x8DA5CB5B EQ PUSH2 0x246 JUMPI DUP1 PUSH4 0x98D5FDCA EQ PUSH2 0x271 JUMPI DUP1 PUSH4 0xA9059CBB EQ PUSH2 0x29C JUMPI DUP1 PUSH4 0xE4849B32 EQ PUSH2 0x2D9 JUMPI PUSH2 0xDF JUMP JUMPDEST DUP1 PUSH4 0x15070401 EQ PUSH2 0x134 JUMPI DUP1 PUSH4 0x17D7DE7C EQ PUSH2 0x15F JUMPI DUP1 PUSH4 0x18160DDD EQ PUSH2 0x18A JUMPI DUP1 PUSH4 0x40C10F19 EQ PUSH2 0x1B5 JUMPI DUP1 PUSH4 0x43D726D6 EQ PUSH2 0x1F2 JUMPI PUSH2 0xDF JUMP JUMPDEST CALLDATASIZE PUSH2 0xDF JUMPI CALLER PUSH20 0xFFFFFFFFFFFFFFFFFFFFFFFFFFFFFFFFFFFFFFFF AND PUSH32 0xB69DBB3426FCE493612CFD8266F1D814871A73DACB08C4195D2C9BCBA69519C3 PUSH1 0x40 MLOAD PUSH1 0x40 MLOAD DUP1 SWAP2 SUB SWAP1 LOG2 STOP JUMPDEST CALLVALUE DUP1 ISZERO PUSH2 0xEB JUMPI PUSH1 0x0 DUP1 REVERT JUMPDEST POP PUSH1 0x0 DUP1 CALLDATASIZE SWAP1 POP EQ PUSH2 0x132 JUMPI PUSH1 0x40 MLOAD PUSH32 0x8C379A000000000000000000000000000000000000000000000000000000000 DUP2 MSTORE PUSH1 0x4 ADD PUSH2 0x129 SWAP1 PUSH2 0x14FA JUMP JUMPDEST PUSH1 0x40 MLOAD DUP1 SWAP2 SUB SWAP1 REVERT JUMPDEST STOP JUMPDEST CALLVALUE DUP1 ISZERO PUSH2 0x140 JUMPI PUSH1 0x0 DUP1 REVERT JUMPDEST POP PUSH2 0x149 PUSH2 0x316 JUMP JUMPDEST PUSH1 0x40 MLOAD PUSH2 0x156 SWAP2 SWAP1 PUSH2 0x14D8 JUMP JUMPDEST PUSH1 0x40 MLOAD DUP1 SWAP2 SUB SWAP1 RETURN JUMPDEST CALLVALUE DUP1 ISZERO PUSH2 0x16B JUMPI PUSH1 0x0 DUP1 REVERT JUMPDEST POP PUSH2 0x174 PUSH2 0x3A8 JUMP JUMPDEST PUSH1 0x40 MLOAD PUSH2 0x181 SWAP2 SWAP1 PUSH2 0x14D8 JUMP JUMPDEST PUSH1 0x40 MLOAD DUP1 SWAP2 SUB SWAP1 RETURN JUMPDEST CALLVALUE DUP1 ISZERO PUSH2 0x196 JUMPI PUSH1 0x0 DUP1 REVERT JUMPDEST POP PUSH2 0x19F PUSH2 0x43A JUMP JUMPDEST PUSH1 0x40 MLOAD PUSH2 0x1AC SWAP2 SWAP1 PUSH2 0x151A JUMP JUMPDEST PUSH1 0x40 MLOAD DUP1 SWAP2 SUB SWAP1 RETURN JUMPDEST CALLVALUE DUP1 ISZERO PUSH2 0x1C1 JUMPI PUSH1 0x0 DUP1 REVERT JUMPDEST POP PUSH2 0x1DC PUSH1 0x4 DUP1 CALLDATASIZE SUB DUP2 ADD SWAP1 PUSH2 0x1D7 SWAP2 SWAP1 PUSH2 0x1361 JUMP JUMPDEST PUSH2 0x444 JUMP JUMPDEST PUSH1 0x40 MLOAD PUSH2 0x1E9 SWAP2 SWAP1 PUSH2 0x14BD JUMP JUMPDEST PUSH1 0x40 MLOAD DUP1 SWAP2 SUB SWAP1 RETURN JUMPDEST CALLVALUE DUP1 ISZERO PUSH2 0x1FE JUMPI PUSH1 0x0 DUP1 REVERT JUMPDEST POP PUSH2 0x207 PUSH2 0x747 JUMP JUMPDEST STOP JUMPDEST CALLVALUE DUP1 ISZERO PUSH2 0x215 JUMPI PUSH1 0x0 DUP1 REVERT JUMPDEST POP PUSH2 0x230 PUSH1 0x4 DUP1 CALLDATASIZE SUB DUP2 ADD SWAP1 PUSH2 0x22B SWAP2 SWAP1 PUSH2 0x1334 JUMP JUMPDEST PUSH2 0x84B JUMP JUMPDEST PUSH1 0x40 MLOAD PUSH2 0x23D SWAP2 SWAP1 PUSH2 0x151A JUMP JUMPDEST PUSH1 0x40 MLOAD DUP1 SWAP2 SUB SWAP1 RETURN JUMPDEST CALLVALUE DUP1 ISZERO PUSH2 0x252 JUMPI PUSH1 0x0 DUP1 REVERT JUMPDEST POP PUSH2 0x25B PUSH2 0x897 JUMP JUMPDEST PUSH1 0x40 MLOAD PUSH2 0x268 SWAP2 SWAP1 PUSH2 0x14A2 JUMP JUMPDEST PUSH1 0x40 MLOAD DUP1 SWAP2 SUB SWAP1 RETURN JUMPDEST CALLVALUE DUP1 ISZERO PUSH2 0x27D JUMPI PUSH1 0x0 DUP1 REVERT JUMPDEST POP PUSH2 0x286 PUSH2 0x8BD JUMP JUMPDEST PUSH1 0x40 MLOAD PUSH2 0x293 SWAP2 SWAP1 PUSH2 0x151A JUMP JUMPDEST PUSH1 0x40 MLOAD DUP1 SWAP2 SUB SWAP1 RETURN JUMPDEST CALLVALUE DUP1 ISZERO PUSH2 0x2A8 JUMPI PUSH1 0x0 DUP1 REVERT JUMPDEST POP PUSH2 0x2C3 PUSH1 0x4 DUP1 CALLDATASIZE SUB DUP2 ADD SWAP1 PUSH2 0x2BE SWAP2 SWAP1 PUSH2 0x1361 JUMP JUMPDEST PUSH2 0x8E5 JUMP JUMPDEST PUSH1 0x40 MLOAD PUSH2 0x2D0 SWAP2 SWAP1 PUSH2 0x14BD JUMP JUMPDEST PUSH1 0x40 MLOAD DUP1 SWAP2 SUB SWAP1 RETURN JUMPDEST CALLVALUE DUP1 ISZERO PUSH2 0x2E5 JUMPI PUSH1 0x0 DUP1 REVERT JUMPDEST POP PUSH2 0x300 PUSH1 0x4 DUP1 CALLDATASIZE SUB DUP2 ADD SWAP1 PUSH2 0x2FB SWAP2 SWAP1 PUSH2 0x13CE JUMP JUMPDEST PUSH2 0xD2F JUMP JUMPDEST PUSH1 0x40 MLOAD PUSH2 0x30D SWAP2 SWAP1 PUSH2 0x14BD JUMP JUMPDEST PUSH1 0x40 MLOAD DUP1 SWAP2 SUB SWAP1 RETURN JUMPDEST PUSH1 0x60 PUSH1 0x3 DUP1 SLOAD PUSH2 0x325 SWAP1 PUSH2 0x16EB JUMP JUMPDEST DUP1 PUSH1 0x1F ADD PUSH1 0x20 DUP1 SWAP2 DIV MUL PUSH1 0x20 ADD PUSH1 0x40 MLOAD SWAP1 DUP2 ADD PUSH1 0x40 MSTORE DUP1 SWAP3 SWAP2 SWAP1 DUP2 DUP2 MSTORE PUSH1 0x20 ADD DUP3 DUP1 SLOAD PUSH2 0x351 SWAP1 PUSH2 0x16EB JUMP JUMPDEST DUP1 ISZERO PUSH2 0x39E JUMPI DUP1 PUSH1 0x1F LT PUSH2 0x373 JUMPI PUSH2 0x100 DUP1 DUP4 SLOAD DIV MUL DUP4 MSTORE SWAP2 PUSH1 0x20 ADD SWAP2 PUSH2 0x39E JUMP JUMPDEST DUP3 ADD SWAP2 SWAP1 PUSH1 0x0 MSTORE PUSH1 0x20 PUSH1 0x0 KECCAK256 SWAP1 JUMPDEST DUP2 SLOAD DUP2 MSTORE SWAP1 PUSH1 0x1 ADD SWAP1 PUSH1 0x20 ADD DUP1 DUP4 GT PUSH2 0x381 JUMPI DUP3 SWAP1 SUB PUSH1 0x1F AND DUP3 ADD SWAP2 JUMPDEST POP POP POP POP POP SWAP1 POP SWAP1 JUMP JUMPDEST PUSH1 0x60 PUSH1 0x2 DUP1 SLOAD PUSH2 0x3B7 SWAP1 PUSH2 0x16EB JUMP JUMPDEST DUP1 PUSH1 0x1F ADD PUSH1 0x20 DUP1 SWAP2 DIV MUL PUSH1 0x20 ADD PUSH1 0x40 MLOAD SWAP1 DUP2 ADD PUSH1 0x40 MSTORE DUP1 SWAP3 SWAP2 SWAP1 DUP2 DUP2 MSTORE PUSH1 0x20 ADD DUP3 DUP1 SLOAD PUSH2 0x3E3 SWAP1 PUSH2 0x16EB JUMP JUMPDEST DUP1 ISZERO PUSH2 0x430 JUMPI DUP1 PUSH1 0x1F LT PUSH2 0x405 JUMPI PUSH2 0x100 DUP1 DUP4 SLOAD DIV MUL DUP4 MSTORE SWAP2 PUSH1 0x20 ADD SWAP2 PUSH2 0x430 JUMP JUMPDEST DUP3 ADD SWAP2 SWAP1 PUSH1 0x0 MSTORE PUSH1 0x20 PUSH1 0x0 KECCAK256 SWAP1 JUMPDEST DUP2 SLOAD DUP2 MSTORE SWAP1 PUSH1 0x1 ADD SWAP1 PUSH1 0x20 ADD DUP1 DUP4 GT PUSH2 0x413 JUMPI DUP3 SWAP1 SUB PUSH1 0x1F AND DUP3 ADD SWAP2 JUMPDEST POP POP POP POP POP SWAP1 POP SWAP1 JUMP JUMPDEST PUSH1 0x0 PUSH1 0x1 SLOAD SWAP1 POP SWAP1 JUMP JUMPDEST PUSH1 0x0 DUP3 PUSH1 0x0 PUSH20 0xFFFFFFFFFFFFFFFFFFFFFFFFFFFFFFFFFFFFFFFF AND DUP2 PUSH20 0xFFFFFFFFFFFFFFFFFFFFFFFFFFFFFFFFFFFFFFFF AND EQ ISZERO PUSH1 0x40 MLOAD DUP1 PUSH1 0x40 ADD PUSH1 0x40 MSTORE DUP1 PUSH1 0x1B DUP2 MSTORE PUSH1 0x20 ADD PUSH32 0x5A65726F2061646472657373206973206E6F7420616C6C6F7765640000000000 DUP2 MSTORE POP SWAP1 PUSH2 0x4EF JUMPI PUSH1 0x40 MLOAD PUSH32 0x8C379A000000000000000000000000000000000000000000000000000000000 DUP2 MSTORE PUSH1 0x4 ADD PUSH2 0x4E6 SWAP2 SWAP1 PUSH2 0x14D8 JUMP JUMPDEST PUSH1 0x40 MLOAD DUP1 SWAP2 SUB SWAP1 REVERT JUMPDEST POP DUP3 PUSH32 0x0 DUP2 PUSH1 0x1 SLOAD PUSH2 0x520 SWAP2 SWAP1 PUSH2 0x157A JUMP JUMPDEST GT ISZERO PUSH1 0x40 MLOAD DUP1 PUSH1 0x40 ADD PUSH1 0x40 MSTORE DUP1 PUSH1 0x16 DUP2 MSTORE PUSH1 0x20 ADD PUSH32 0x4D6178696D756D20737570706C79207265616368656400000000000000000000 DUP2 MSTORE POP SWAP1 PUSH2 0x599 JUMPI PUSH1 0x40 MLOAD PUSH32 0x8C379A000000000000000000000000000000000000000000000000000000000 DUP2 MSTORE PUSH1 0x4 ADD PUSH2 0x590 SWAP2 SWAP1 PUSH2 0x14D8 JUMP JUMPDEST PUSH1 0x40 MLOAD DUP1 SWAP2 SUB SWAP1 REVERT JUMPDEST POP PUSH2 0x5A2 PUSH2 0x11B3 JUMP JUMPDEST PUSH1 0x4 PUSH1 0x0 SWAP1 SLOAD SWAP1 PUSH2 0x100 EXP SWAP1 DIV PUSH20 0xFFFFFFFFFFFFFFFFFFFFFFFFFFFFFFFFFFFFFFFF AND PUSH20 0xFFFFFFFFFFFFFFFFFFFFFFFFFFFFFFFFFFFFFFFF AND CALLER PUSH20 0xFFFFFFFFFFFFFFFFFFFFFFFFFFFFFFFFFFFFFFFF AND EQ PUSH1 0x40 MLOAD DUP1 PUSH1 0x40 ADD PUSH1 0x40 MSTORE DUP1 PUSH1 0x18 DUP2 MSTORE PUSH1 0x20 ADD PUSH32 0x41636365737369626C65206F6E6C79206279206F776E65720000000000000000 DUP2 MSTORE POP SWAP1 PUSH2 0x66A JUMPI PUSH1 0x40 MLOAD PUSH32 0x8C379A000000000000000000000000000000000000000000000000000000000 DUP2 MSTORE PUSH1 0x4 ADD PUSH2 0x661 SWAP2 SWAP1 PUSH2 0x14D8 JUMP JUMPDEST PUSH1 0x40 MLOAD DUP1 SWAP2 SUB SWAP1 REVERT JUMPDEST POP DUP4 PUSH1 0x1 PUSH1 0x0 DUP3 DUP3 SLOAD PUSH2 0x67D SWAP2 SWAP1 PUSH2 0x157A JUMP JUMPDEST SWAP3 POP POP DUP2 SWAP1 SSTORE POP DUP4 PUSH1 0x5 PUSH1 0x0 DUP8 PUSH20 0xFFFFFFFFFFFFFFFFFFFFFFFFFFFFFFFFFFFFFFFF AND PUSH20 0xFFFFFFFFFFFFFFFFFFFFFFFFFFFFFFFFFFFFFFFF AND DUP2 MSTORE PUSH1 0x20 ADD SWAP1 DUP2 MSTORE PUSH1 0x20 ADD PUSH1 0x0 KECCAK256 PUSH1 0x0 ADD PUSH1 0x0 DUP3 DUP3 SLOAD PUSH2 0x6D6 SWAP2 SWAP1 PUSH2 0x157A JUMP JUMPDEST SWAP3 POP POP DUP2 SWAP1 SSTORE POP DUP5 PUSH20 0xFFFFFFFFFFFFFFFFFFFFFFFFFFFFFFFFFFFFFFFF AND PUSH32 0xF6798A560793A54C3BCFE86A93CDE1E73087D944C0EA20544137D4121396885 DUP6 PUSH1 0x40 MLOAD PUSH2 0x723 SWAP2 SWAP1 PUSH2 0x151A JUMP JUMPDEST PUSH1 0x40 MLOAD DUP1 SWAP2 SUB SWAP1 LOG2 PUSH1 0x0 SWAP5 POP PUSH1 0x0 SWAP4 POP PUSH1 0x1 SWAP3 POP PUSH2 0x73F PUSH2 0x12B9 JUMP JUMPDEST POP POP SWAP3 SWAP2 POP POP JUMP JUMPDEST PUSH1 0x4 PUSH1 0x0 SWAP1 SLOAD SWAP1 PUSH2 0x100 EXP SWAP1 DIV PUSH20 0xFFFFFFFFFFFFFFFFFFFFFFFFFFFFFFFFFFFFFFFF AND PUSH20 0xFFFFFFFFFFFFFFFFFFFFFFFFFFFFFFFFFFFFFFFF AND CALLER PUSH20 0xFFFFFFFFFFFFFFFFFFFFFFFFFFFFFFFFFFFFFFFF AND EQ PUSH1 0x40 MLOAD DUP1 PUSH1 0x40 ADD PUSH1 0x40 MSTORE DUP1 PUSH1 0x18 DUP2 MSTORE PUSH1 0x20 ADD PUSH32 0x41636365737369626C65206F6E6C79206279206F776E65720000000000000000 DUP2 MSTORE POP SWAP1 PUSH2 0x80F JUMPI PUSH1 0x40 MLOAD PUSH32 0x8C379A000000000000000000000000000000000000000000000000000000000 DUP2 MSTORE PUSH1 0x4 ADD PUSH2 0x806 SWAP2 SWAP1 PUSH2 0x14D8 JUMP JUMPDEST PUSH1 0x40 MLOAD DUP1 SWAP2 SUB SWAP1 REVERT JUMPDEST POP PUSH1 0x4 PUSH1 0x0 SWAP1 SLOAD SWAP1 PUSH2 0x100 EXP SWAP1 DIV PUSH20 0xFFFFFFFFFFFFFFFFFFFFFFFFFFFFFFFFFFFFFFFF AND PUSH20 0xFFFFFFFFFFFFFFFFFFFFFFFFFFFFFFFFFFFFFFFF AND SELFDESTRUCT JUMPDEST PUSH1 0x0 PUSH1 0x5 PUSH1 0x0 DUP4 PUSH20 0xFFFFFFFFFFFFFFFFFFFFFFFFFFFFFFFFFFFFFFFF AND PUSH20 0xFFFFFFFFFFFFFFFFFFFFFFFFFFFFFFFFFFFFFFFF AND DUP2 MSTORE PUSH1 0x20 ADD SWAP1 DUP2 MSTORE PUSH1 0x20 ADD PUSH1 0x0 KECCAK256 PUSH1 0x0 ADD SLOAD SWAP1 POP SWAP2 SWAP1 POP JUMP JUMPDEST PUSH1 0x4 PUSH1 0x0 SWAP1 SLOAD SWAP1 PUSH2 0x100 EXP SWAP1 DIV PUSH20 0xFFFFFFFFFFFFFFFFFFFFFFFFFFFFFFFFFFFFFFFF AND DUP2 JUMP JUMPDEST PUSH1 0x0 PUSH32 0x0 SWAP1 POP SWAP1 JUMP JUMPDEST PUSH1 0x0 CALLER PUSH1 0x0 PUSH20 0xFFFFFFFFFFFFFFFFFFFFFFFFFFFFFFFFFFFFFFFF AND DUP2 PUSH20 0xFFFFFFFFFFFFFFFFFFFFFFFFFFFFFFFFFFFFFFFF AND EQ ISZERO PUSH1 0x40 MLOAD DUP1 PUSH1 0x40 ADD PUSH1 0x40 MSTORE DUP1 PUSH1 0x1B DUP2 MSTORE PUSH1 0x20 ADD PUSH32 0x5A65726F2061646472657373206973206E6F7420616C6C6F7765640000000000 DUP2 MSTORE POP SWAP1 PUSH2 0x990 JUMPI PUSH1 0x40 MLOAD PUSH32 0x8C379A000000000000000000000000000000000000000000000000000000000 DUP2 MSTORE PUSH1 0x4 ADD PUSH2 0x987 SWAP2 SWAP1 PUSH2 0x14D8 JUMP JUMPDEST PUSH1 0x40 MLOAD DUP1 SWAP2 SUB SWAP1 REVERT JUMPDEST POP DUP4 PUSH1 0x0 PUSH20 0xFFFFFFFFFFFFFFFFFFFFFFFFFFFFFFFFFFFFFFFF AND DUP2 PUSH20 0xFFFFFFFFFFFFFFFFFFFFFFFFFFFFFFFFFFFFFFFF AND EQ ISZERO PUSH1 0x40 MLOAD DUP1 PUSH1 0x40 ADD PUSH1 0x40 MSTORE DUP1 PUSH1 0x1B DUP2 MSTORE PUSH1 0x20 ADD PUSH32 0x5A65726F2061646472657373206973206E6F7420616C6C6F7765640000000000 DUP2 MSTORE POP SWAP1 PUSH2 0xA3A JUMPI PUSH1 0x40 MLOAD PUSH32 0x8C379A000000000000000000000000000000000000000000000000000000000 DUP2 MSTORE PUSH1 0x4 ADD PUSH2 0xA31 SWAP2 SWAP1 PUSH2 0x14D8 JUMP JUMPDEST PUSH1 0x40 MLOAD DUP1 SWAP2 SUB SWAP1 REVERT JUMPDEST POP CALLER DUP5 DUP1 PUSH2 0xA47 DUP4 PUSH2 0x84B JUMP JUMPDEST LT ISZERO PUSH1 0x40 MLOAD DUP1 PUSH1 0x40 ADD PUSH1 0x40 MSTORE DUP1 PUSH1 0x14 DUP2 MSTORE PUSH1 0x20 ADD PUSH32 0x496E73756666696369656E742062616C616E6365000000000000000000000000 DUP2 MSTORE POP SWAP1 PUSH2 0xAC0 JUMPI PUSH1 0x40 MLOAD PUSH32 0x8C379A000000000000000000000000000000000000000000000000000000000 DUP2 MSTORE PUSH1 0x4 ADD PUSH2 0xAB7 SWAP2 SWAP1 PUSH2 0x14D8 JUMP JUMPDEST PUSH1 0x40 MLOAD DUP1 SWAP2 SUB SWAP1 REVERT JUMPDEST POP CALLER PUSH1 0x5 PUSH1 0x0 DUP3 PUSH20 0xFFFFFFFFFFFFFFFFFFFFFFFFFFFFFFFFFFFFFFFF AND PUSH20 0xFFFFFFFFFFFFFFFFFFFFFFFFFFFFFFFFFFFFFFFF AND DUP2 MSTORE PUSH1 0x20 ADD SWAP1 DUP2 MSTORE PUSH1 0x20 ADD PUSH1 0x0 KECCAK256 PUSH1 0x1 ADD SLOAD TIMESTAMP GT PUSH1 0x40 MLOAD DUP1 PUSH1 0x40 ADD PUSH1 0x40 MSTORE DUP1 PUSH1 0x12 DUP2 MSTORE PUSH1 0x20 ADD PUSH32 0x57696E646F772074696D65206C6F636B65640000000000000000000000000000 DUP2 MSTORE POP SWAP1 PUSH2 0xB7E JUMPI PUSH1 0x40 MLOAD PUSH32 0x8C379A000000000000000000000000000000000000000000000000000000000 DUP2 MSTORE PUSH1 0x4 ADD PUSH2 0xB75 SWAP2 SWAP1 PUSH2 0x14D8 JUMP JUMPDEST PUSH1 0x40 MLOAD DUP1 SWAP2 SUB SWAP1 REVERT JUMPDEST POP PUSH32 0x0 TIMESTAMP PUSH2 0xBAB SWAP2 SWAP1 PUSH2 0x157A JUMP JUMPDEST PUSH1 0x5 PUSH1 0x0 DUP4 PUSH20 0xFFFFFFFFFFFFFFFFFFFFFFFFFFFFFFFFFFFFFFFF AND PUSH20 0xFFFFFFFFFFFFFFFFFFFFFFFFFFFFFFFFFFFFFFFF AND DUP2 MSTORE PUSH1 0x20 ADD SWAP1 DUP2 MSTORE PUSH1 0x20 ADD PUSH1 0x0 KECCAK256 PUSH1 0x1 ADD DUP2 SWAP1 SSTORE POP PUSH2 0xBF9 PUSH2 0x11B3 JUMP JUMPDEST DUP7 PUSH1 0x5 PUSH1 0x0 CALLER PUSH20 0xFFFFFFFFFFFFFFFFFFFFFFFFFFFFFFFFFFFFFFFF AND PUSH20 0xFFFFFFFFFFFFFFFFFFFFFFFFFFFFFFFFFFFFFFFF AND DUP2 MSTORE PUSH1 0x20 ADD SWAP1 DUP2 MSTORE PUSH1 0x20 ADD PUSH1 0x0 KECCAK256 PUSH1 0x0 ADD PUSH1 0x0 DUP3 DUP3 SLOAD PUSH2 0xC4B SWAP2 SWAP1 PUSH2 0x162A JUMP JUMPDEST SWAP3 POP POP DUP2 SWAP1 SSTORE POP DUP7 PUSH1 0x5 PUSH1 0x0 DUP11 PUSH20 0xFFFFFFFFFFFFFFFFFFFFFFFFFFFFFFFFFFFFFFFF AND PUSH20 0xFFFFFFFFFFFFFFFFFFFFFFFFFFFFFFFFFFFFFFFF AND DUP2 MSTORE PUSH1 0x20 ADD SWAP1 DUP2 MSTORE PUSH1 0x20 ADD PUSH1 0x0 KECCAK256 PUSH1 0x0 ADD PUSH1 0x0 DUP3 DUP3 SLOAD PUSH2 0xCA4 SWAP2 SWAP1 PUSH2 0x157A JUMP JUMPDEST SWAP3 POP POP DUP2 SWAP1 SSTORE POP DUP8 PUSH20 0xFFFFFFFFFFFFFFFFFFFFFFFFFFFFFFFFFFFFFFFF AND CALLER PUSH20 0xFFFFFFFFFFFFFFFFFFFFFFFFFFFFFFFFFFFFFFFF AND PUSH32 0xDDF252AD1BE2C89B69C2B068FC378DAA952BA7F163C4A11628F55A4DF523B3EF DUP10 PUSH1 0x40 MLOAD PUSH2 0xD08 SWAP2 SWAP1 PUSH2 0x151A JUMP JUMPDEST PUSH1 0x40 MLOAD DUP1 SWAP2 SUB SWAP1 LOG3 PUSH1 0x0 SWAP8 POP PUSH1 0x0 SWAP7 POP PUSH1 0x1 SWAP6 POP PUSH2 0xD24 PUSH2 0x12B9 JUMP JUMPDEST POP POP POP POP POP SWAP3 SWAP2 POP POP JUMP JUMPDEST PUSH1 0x0 CALLER PUSH1 0x0 PUSH20 0xFFFFFFFFFFFFFFFFFFFFFFFFFFFFFFFFFFFFFFFF AND DUP2 PUSH20 0xFFFFFFFFFFFFFFFFFFFFFFFFFFFFFFFFFFFFFFFF AND EQ ISZERO PUSH1 0x40 MLOAD DUP1 PUSH1 0x40 ADD PUSH1 0x40 MSTORE DUP1 PUSH1 0x1B DUP2 MSTORE PUSH1 0x20 ADD PUSH32 0x5A65726F2061646472657373206973206E6F7420616C6C6F7765640000000000 DUP2 MSTORE POP SWAP1 PUSH2 0xDDA JUMPI PUSH1 0x40 MLOAD PUSH32 0x8C379A000000000000000000000000000000000000000000000000000000000 DUP2 MSTORE PUSH1 0x4 ADD PUSH2 0xDD1 SWAP2 SWAP1 PUSH2 0x14D8 JUMP JUMPDEST PUSH1 0x40 MLOAD DUP1 SWAP2 SUB SWAP1 REVERT JUMPDEST POP PUSH2 0xDE3 PUSH2 0x11B3 JUMP JUMPDEST CALLER DUP4 DUP1 PUSH2 0xDEF DUP4 PUSH2 0x84B JUMP JUMPDEST LT ISZERO PUSH1 0x40 MLOAD DUP1 PUSH1 0x40 ADD PUSH1 0x40 MSTORE DUP1 PUSH1 0x14 DUP2 MSTORE PUSH1 0x20 ADD PUSH32 0x496E73756666696369656E742062616C616E6365000000000000000000000000 DUP2 MSTORE POP SWAP1 PUSH2 0xE68 JUMPI PUSH1 0x40 MLOAD PUSH32 0x8C379A000000000000000000000000000000000000000000000000000000000 DUP2 MSTORE PUSH1 0x4 ADD PUSH2 0xE5F SWAP2 SWAP1 PUSH2 0x14D8 JUMP JUMPDEST PUSH1 0x40 MLOAD DUP1 SWAP2 SUB SWAP1 REVERT JUMPDEST POP CALLER PUSH1 0x5 PUSH1 0x0 DUP3 PUSH20 0xFFFFFFFFFFFFFFFFFFFFFFFFFFFFFFFFFFFFFFFF AND PUSH20 0xFFFFFFFFFFFFFFFFFFFFFFFFFFFFFFFFFFFFFFFF AND DUP2 MSTORE PUSH1 0x20 ADD SWAP1 DUP2 MSTORE PUSH1 0x20 ADD PUSH1 0x0 KECCAK256 PUSH1 0x1 ADD SLOAD TIMESTAMP GT PUSH1 0x40 MLOAD DUP1 PUSH1 0x40 ADD PUSH1 0x40 MSTORE DUP1 PUSH1 0x12 DUP2 MSTORE PUSH1 0x20 ADD PUSH32 0x57696E646F772074696D65206C6F636B65640000000000000000000000000000 DUP2 MSTORE POP SWAP1 PUSH2 0xF26 JUMPI PUSH1 0x40 MLOAD PUSH32 0x8C379A000000000000000000000000000000000000000000000000000000000 DUP2 MSTORE PUSH1 0x4 ADD PUSH2 0xF1D SWAP2 SWAP1 PUSH2 0x14D8 JUMP JUMPDEST PUSH1 0x40 MLOAD DUP1 SWAP2 SUB SWAP1 REVERT JUMPDEST POP PUSH32 0x0 TIMESTAMP PUSH2 0xF53 SWAP2 SWAP1 PUSH2 0x157A JUMP JUMPDEST PUSH1 0x5 PUSH1 0x0 DUP4 PUSH20 0xFFFFFFFFFFFFFFFFFFFFFFFFFFFFFFFFFFFFFFFF AND PUSH20 0xFFFFFFFFFFFFFFFFFFFFFFFFFFFFFFFFFFFFFFFF AND DUP2 MSTORE PUSH1 0x20 ADD SWAP1 DUP2 MSTORE PUSH1 0x20 ADD PUSH1 0x0 KECCAK256 PUSH1 0x1 ADD DUP2 SWAP1 SSTORE POP PUSH1 0x0 PUSH32 0x0 DUP8 PUSH2 0xFC7 SWAP2 SWAP1 PUSH2 0x15D0 JUMP JUMPDEST SWAP1 POP DUP7 PUSH1 0x1 PUSH1 0x0 DUP3 DUP3 SLOAD PUSH2 0xFDB SWAP2 SWAP1 PUSH2 0x162A JUMP JUMPDEST SWAP3 POP POP DUP2 SWAP1 SSTORE POP DUP7 PUSH1 0x5 PUSH1 0x0 CALLER PUSH20 0xFFFFFFFFFFFFFFFFFFFFFFFFFFFFFFFFFFFFFFFF AND PUSH20 0xFFFFFFFFFFFFFFFFFFFFFFFFFFFFFFFFFFFFFFFF AND DUP2 MSTORE PUSH1 0x20 ADD SWAP1 DUP2 MSTORE PUSH1 0x20 ADD PUSH1 0x0 KECCAK256 PUSH1 0x0 ADD PUSH1 0x0 DUP3 DUP3 SLOAD PUSH2 0x1034 SWAP2 SWAP1 PUSH2 0x162A JUMP JUMPDEST SWAP3 POP POP DUP2 SWAP1 SSTORE POP PUSH1 0x0 DUP2 PUSH20 0x0 PUSH4 0xC0BA8F42 SWAP1 SWAP2 CALLER PUSH1 0x40 MLOAD DUP4 PUSH4 0xFFFFFFFF AND PUSH1 0xE0 SHL DUP2 MSTORE PUSH1 0x4 ADD PUSH2 0x1078 SWAP3 SWAP2 SWAP1 PUSH2 0x1535 JUMP JUMPDEST PUSH1 0x20 PUSH1 0x40 MLOAD DUP1 DUP4 SUB DUP2 DUP7 DUP1 EXTCODESIZE ISZERO DUP1 ISZERO PUSH2 0x1090 JUMPI PUSH1 0x0 DUP1 REVERT JUMPDEST POP GAS DELEGATECALL ISZERO DUP1 ISZERO PUSH2 0x10A4 JUMPI RETURNDATASIZE PUSH1 0x0 DUP1 RETURNDATACOPY RETURNDATASIZE PUSH1 0x0 REVERT JUMPDEST POP POP POP POP PUSH1 0x40 MLOAD RETURNDATASIZE PUSH1 0x1F NOT PUSH1 0x1F DUP3 ADD AND DUP3 ADD DUP1 PUSH1 0x40 MSTORE POP DUP2 ADD SWAP1 PUSH2 0x10C8 SWAP2 SWAP1 PUSH2 0x13A1 JUMP JUMPDEST SWAP1 POP DUP1 PUSH1 0x40 MLOAD DUP1 PUSH1 0x40 ADD PUSH1 0x40 MSTORE DUP1 PUSH1 0x13 DUP2 MSTORE PUSH1 0x20 ADD PUSH32 0x576569207472616E73666572206661696C656400000000000000000000000000 DUP2 MSTORE POP SWAP1 PUSH2 0x1142 JUMPI PUSH1 0x40 MLOAD PUSH32 0x8C379A000000000000000000000000000000000000000000000000000000000 DUP2 MSTORE PUSH1 0x4 ADD PUSH2 0x1139 SWAP2 SWAP1 PUSH2 0x14D8 JUMP JUMPDEST PUSH1 0x40 MLOAD DUP1 SWAP2 SUB SWAP1 REVERT JUMPDEST POP CALLER PUSH20 0xFFFFFFFFFFFFFFFFFFFFFFFFFFFFFFFFFFFFFFFF AND PUSH32 0x5E5E995CE3133561AFCEAA51A9A154D5DB228CD7525D34DF5185582C18D3DF09 DUP10 PUSH1 0x40 MLOAD PUSH2 0x1189 SWAP2 SWAP1 PUSH2 0x151A JUMP JUMPDEST PUSH1 0x40 MLOAD DUP1 SWAP2 SUB SWAP1 LOG2 PUSH1 0x0 SWAP2 POP PUSH1 0x0 SWAP8 POP PUSH1 0x0 SWAP1 POP DUP1 SWAP7 POP POP POP POP POP POP PUSH2 0x11AD PUSH2 0x12B9 JUMP JUMPDEST POP SWAP2 SWAP1 POP JUMP JUMPDEST PUSH32 0x3000000000000000000000000000000000000000000000000000000000000000 PUSH1 0x0 DUP1 SLOAD SWAP1 PUSH2 0x100 EXP SWAP1 DIV PUSH1 0xF8 SHL PUSH31 0xFFFFFFFFFFFFFFFFFFFFFFFFFFFFFFFFFFFFFFFFFFFFFFFFFFFFFFFFFFFFFF NOT AND EQ PUSH1 0x40 MLOAD DUP1 PUSH1 0x40 ADD PUSH1 0x40 MSTORE DUP1 PUSH1 0xE DUP2 MSTORE PUSH1 0x20 ADD PUSH32 0x5265656E7472616E6379204C6F67000000000000000000000000000000000000 DUP2 MSTORE POP SWAP1 PUSH2 0x127C JUMPI PUSH1 0x40 MLOAD PUSH32 0x8C379A000000000000000000000000000000000000000000000000000000000 DUP2 MSTORE PUSH1 0x4 ADD PUSH2 0x1273 SWAP2 SWAP1 PUSH2 0x14D8 JUMP JUMPDEST PUSH1 0x40 MLOAD DUP1 SWAP2 SUB SWAP1 REVERT JUMPDEST POP PUSH32 0x3100000000000000000000000000000000000000000000000000000000000000 PUSH1 0x0 DUP1 PUSH2 0x100 EXP DUP2 SLOAD DUP2 PUSH1 0xFF MUL NOT AND SWAP1 DUP4 PUSH1 0xF8 SHR MUL OR SWAP1 SSTORE POP JUMP JUMPDEST PUSH32 0x3000000000000000000000000000000000000000000000000000000000000000 PUSH1 0x0 DUP1 PUSH2 0x100 EXP DUP2 SLOAD DUP2 PUSH1 0xFF MUL NOT AND SWAP1 DUP4 PUSH1 0xF8 SHR MUL OR SWAP1 SSTORE POP JUMP JUMPDEST PUSH1 0x0 DUP2 CALLDATALOAD SWAP1 POP PUSH2 0x1304 DUP2 PUSH2 0x17BA JUMP JUMPDEST SWAP3 SWAP2 POP POP JUMP JUMPDEST PUSH1 0x0 DUP2 MLOAD SWAP1 POP PUSH2 0x1319 DUP2 PUSH2 0x17D1 JUMP JUMPDEST SWAP3 SWAP2 POP POP JUMP JUMPDEST PUSH1 0x0 DUP2 CALLDATALOAD SWAP1 POP PUSH2 0x132E DUP2 PUSH2 0x17E8 JUMP JUMPDEST SWAP3 SWAP2 POP POP JUMP JUMPDEST PUSH1 0x0 PUSH1 0x20 DUP3 DUP5 SUB SLT ISZERO PUSH2 0x134A JUMPI PUSH2 0x1349 PUSH2 0x177B JUMP JUMPDEST JUMPDEST PUSH1 0x0 PUSH2 0x1358 DUP5 DUP3 DUP6 ADD PUSH2 0x12F5 JUMP JUMPDEST SWAP2 POP POP SWAP3 SWAP2 POP POP JUMP JUMPDEST PUSH1 0x0 DUP1 PUSH1 0x40 DUP4 DUP6 SUB SLT ISZERO PUSH2 0x1378 JUMPI PUSH2 0x1377 PUSH2 0x177B JUMP JUMPDEST JUMPDEST PUSH1 0x0 PUSH2 0x1386 DUP6 DUP3 DUP7 ADD PUSH2 0x12F5 JUMP JUMPDEST SWAP3 POP POP PUSH1 0x20 PUSH2 0x1397 DUP6 DUP3 DUP7 ADD PUSH2 0x131F JUMP JUMPDEST SWAP2 POP POP SWAP3 POP SWAP3 SWAP1 POP JUMP JUMPDEST PUSH1 0x0 PUSH1 0x20 DUP3 DUP5 SUB SLT ISZERO PUSH2 0x13B7 JUMPI PUSH2 0x13B6 PUSH2 0x177B JUMP JUMPDEST JUMPDEST PUSH1 0x0 PUSH2 0x13C5 DUP5 DUP3 DUP6 ADD PUSH2 0x130A JUMP JUMPDEST SWAP2 POP POP SWAP3 SWAP2 POP POP JUMP JUMPDEST PUSH1 0x0 PUSH1 0x20 DUP3 DUP5 SUB SLT ISZERO PUSH2 0x13E4 JUMPI PUSH2 0x13E3 PUSH2 0x177B JUMP JUMPDEST JUMPDEST PUSH1 0x0 PUSH2 0x13F2 DUP5 DUP3 DUP6 ADD PUSH2 0x131F JUMP JUMPDEST SWAP2 POP POP SWAP3 SWAP2 POP POP JUMP JUMPDEST PUSH2 0x1404 DUP2 PUSH2 0x1670 JUMP JUMPDEST DUP3 MSTORE POP POP JUMP JUMPDEST PUSH2 0x1413 DUP2 PUSH2 0x165E JUMP JUMPDEST DUP3 MSTORE POP POP JUMP JUMPDEST PUSH2 0x1422 DUP2 PUSH2 0x1682 JUMP JUMPDEST DUP3 MSTORE POP POP JUMP JUMPDEST PUSH1 0x0 PUSH2 0x1433 DUP3 PUSH2 0x155E JUMP JUMPDEST PUSH2 0x143D DUP2 DUP6 PUSH2 0x1569 JUMP JUMPDEST SWAP4 POP PUSH2 0x144D DUP2 DUP6 PUSH1 0x20 DUP7 ADD PUSH2 0x16B8 JUMP JUMPDEST PUSH2 0x1456 DUP2 PUSH2 0x1780 JUMP JUMPDEST DUP5 ADD SWAP2 POP POP SWAP3 SWAP2 POP POP JUMP JUMPDEST PUSH1 0x0 PUSH2 0x146E PUSH1 0xE DUP4 PUSH2 0x1569 JUMP JUMPDEST SWAP2 POP PUSH2 0x1479 DUP3 PUSH2 0x1791 JUMP JUMPDEST PUSH1 0x20 DUP3 ADD SWAP1 POP SWAP2 SWAP1 POP JUMP JUMPDEST PUSH2 0x148D DUP2 PUSH2 0x16AE JUMP JUMPDEST DUP3 MSTORE POP POP JUMP JUMPDEST PUSH2 0x149C DUP2 PUSH2 0x16AE JUMP JUMPDEST DUP3 MSTORE POP POP JUMP JUMPDEST PUSH1 0x0 PUSH1 0x20 DUP3 ADD SWAP1 POP PUSH2 0x14B7 PUSH1 0x0 DUP4 ADD DUP5 PUSH2 0x13FB JUMP JUMPDEST SWAP3 SWAP2 POP POP JUMP JUMPDEST PUSH1 0x0 PUSH1 0x20 DUP3 ADD SWAP1 POP PUSH2 0x14D2 PUSH1 0x0 DUP4 ADD DUP5 PUSH2 0x1419 JUMP JUMPDEST SWAP3 SWAP2 POP POP JUMP JUMPDEST PUSH1 0x0 PUSH1 0x20 DUP3 ADD SWAP1 POP DUP2 DUP2 SUB PUSH1 0x0 DUP4 ADD MSTORE PUSH2 0x14F2 DUP2 DUP5 PUSH2 0x1428 JUMP JUMPDEST SWAP1 POP SWAP3 SWAP2 POP POP JUMP JUMPDEST PUSH1 0x0 PUSH1 0x20 DUP3 ADD SWAP1 POP DUP2 DUP2 SUB PUSH1 0x0 DUP4 ADD MSTORE PUSH2 0x1513 DUP2 PUSH2 0x1461 JUMP JUMPDEST SWAP1 POP SWAP2 SWAP1 POP JUMP JUMPDEST PUSH1 0x0 PUSH1 0x20 DUP3 ADD SWAP1 POP PUSH2 0x152F PUSH1 0x0 DUP4 ADD DUP5 PUSH2 0x1484 JUMP JUMPDEST SWAP3 SWAP2 POP POP JUMP JUMPDEST PUSH1 0x0 PUSH1 0x40 DUP3 ADD SWAP1 POP PUSH2 0x154A PUSH1 0x0 DUP4 ADD DUP6 PUSH2 0x1493 JUMP JUMPDEST PUSH2 0x1557 PUSH1 0x20 DUP4 ADD DUP5 PUSH2 0x140A JUMP JUMPDEST SWAP4 SWAP3 POP POP POP JUMP JUMPDEST PUSH1 0x0 DUP2 MLOAD SWAP1 POP SWAP2 SWAP1 POP JUMP JUMPDEST PUSH1 0x0 DUP3 DUP3 MSTORE PUSH1 0x20 DUP3 ADD SWAP1 POP SWAP3 SWAP2 POP POP JUMP JUMPDEST PUSH1 0x0 PUSH2 0x1585 DUP3 PUSH2 0x16AE JUMP JUMPDEST SWAP2 POP PUSH2 0x1590 DUP4 PUSH2 0x16AE JUMP JUMPDEST SWAP3 POP DUP3 PUSH32 0xFFFFFFFFFFFFFFFFFFFFFFFFFFFFFFFFFFFFFFFFFFFFFFFFFFFFFFFFFFFFFFFF SUB DUP3 GT ISZERO PUSH2 0x15C5 JUMPI PUSH2 0x15C4 PUSH2 0x171D JUMP JUMPDEST JUMPDEST DUP3 DUP3 ADD SWAP1 POP SWAP3 SWAP2 POP POP JUMP JUMPDEST PUSH1 0x0 PUSH2 0x15DB DUP3 PUSH2 0x16AE JUMP JUMPDEST SWAP2 POP PUSH2 0x15E6 DUP4 PUSH2 0x16AE JUMP JUMPDEST SWAP3 POP DUP2 PUSH32 0xFFFFFFFFFFFFFFFFFFFFFFFFFFFFFFFFFFFFFFFFFFFFFFFFFFFFFFFFFFFFFFFF DIV DUP4 GT DUP3 ISZERO ISZERO AND ISZERO PUSH2 0x161F JUMPI PUSH2 0x161E PUSH2 0x171D JUMP JUMPDEST JUMPDEST DUP3 DUP3 MUL SWAP1 POP SWAP3 SWAP2 POP POP JUMP JUMPDEST PUSH1 0x0 PUSH2 0x1635 DUP3 PUSH2 0x16AE JUMP JUMPDEST SWAP2 POP PUSH2 0x1640 DUP4 PUSH2 0x16AE JUMP JUMPDEST SWAP3 POP DUP3 DUP3 LT ISZERO PUSH2 0x1653 JUMPI PUSH2 0x1652 PUSH2 0x171D JUMP JUMPDEST JUMPDEST DUP3 DUP3 SUB SWAP1 POP SWAP3 SWAP2 POP POP JUMP JUMPDEST PUSH1 0x0 PUSH2 0x1669 DUP3 PUSH2 0x168E JUMP JUMPDEST SWAP1 POP SWAP2 SWAP1 POP JUMP JUMPDEST PUSH1 0x0 PUSH2 0x167B DUP3 PUSH2 0x168E JUMP JUMPDEST SWAP1 POP SWAP2 SWAP1 POP JUMP JUMPDEST PUSH1 0x0 DUP2 ISZERO ISZERO SWAP1 POP SWAP2 SWAP1 POP JUMP JUMPDEST PUSH1 0x0 PUSH20 0xFFFFFFFFFFFFFFFFFFFFFFFFFFFFFFFFFFFFFFFF DUP3 AND SWAP1 POP SWAP2 SWAP1 POP JUMP JUMPDEST PUSH1 0x0 DUP2 SWAP1 POP SWAP2 SWAP1 POP JUMP JUMPDEST PUSH1 0x0 JUMPDEST DUP4 DUP2 LT ISZERO PUSH2 0x16D6 JUMPI DUP1 DUP3 ADD MLOAD DUP2 DUP5 ADD MSTORE PUSH1 0x20 DUP2 ADD SWAP1 POP PUSH2 0x16BB JUMP JUMPDEST DUP4 DUP2 GT ISZERO PUSH2 0x16E5 JUMPI PUSH1 0x0 DUP5 DUP5 ADD MSTORE JUMPDEST POP POP POP POP JUMP JUMPDEST PUSH1 0x0 PUSH1 0x2 DUP3 DIV SWAP1 POP PUSH1 0x1 DUP3 AND DUP1 PUSH2 0x1703 JUMPI PUSH1 0x7F DUP3 AND SWAP2 POP JUMPDEST PUSH1 0x20 DUP3 LT DUP2 EQ ISZERO PUSH2 0x1717 JUMPI PUSH2 0x1716 PUSH2 0x174C JUMP JUMPDEST JUMPDEST POP SWAP2 SWAP1 POP JUMP JUMPDEST PUSH32 0x4E487B7100000000000000000000000000000000000000000000000000000000 PUSH1 0x0 MSTORE PUSH1 0x11 PUSH1 0x4 MSTORE PUSH1 0x24 PUSH1 0x0 REVERT JUMPDEST PUSH32 0x4E487B7100000000000000000000000000000000000000000000000000000000 PUSH1 0x0 MSTORE PUSH1 0x22 PUSH1 0x4 MSTORE PUSH1 0x24 PUSH1 0x0 REVERT JUMPDEST PUSH1 0x0 DUP1 REVERT JUMPDEST PUSH1 0x0 PUSH1 0x1F NOT PUSH1 0x1F DUP4 ADD AND SWAP1 POP SWAP2 SWAP1 POP JUMP JUMPDEST PUSH32 0x46616C6C6261636B206361746368000000000000000000000000000000000000 PUSH1 0x0 DUP3 ADD MSTORE POP JUMP JUMPDEST PUSH2 0x17C3 DUP2 PUSH2 0x165E JUMP JUMPDEST DUP2 EQ PUSH2 0x17CE JUMPI PUSH1 0x0 DUP1 REVERT JUMPDEST POP JUMP JUMPDEST PUSH2 0x17DA DUP2 PUSH2 0x1682 JUMP JUMPDEST DUP2 EQ PUSH2 0x17E5 JUMPI PUSH1 0x0 DUP1 REVERT JUMPDEST POP JUMP JUMPDEST PUSH2 0x17F1 DUP2 PUSH2 0x16AE JUMP JUMPDEST DUP2 EQ PUSH2 0x17FC JUMPI PUSH1 0x0 DUP1 REVERT JUMPDEST POP JUMP INVALID LOG2 PUSH5 0x6970667358 0x22 SLT KECCAK256 DUP11 0xE2 COINBASE 0xDE RETURNDATASIZE 0xB8 0x4B 0xE SELFBALANCE SLOAD DUP6 0xA5 PUSH8 0x638267FDB64DAF43 EQ ADD DUP1 0xC7 SHR PUSH14 0x1A18443A0B64736F6C6343000807 STOP CALLER "
		},
		"gasEstimates": {
			"creation": {
				"codeDepositCost": "1239400",
				"executionCost": "infinite",
				"totalCost": "infinite"
			},
			"external": {
				"": "548",
				"balanceOf(address)": "2847",
				"close()": "infinite",
				"getName()": "infinite",
				"getPrice()": "infinite",
				"getSymbol()": "infinite",
				"mint(address,uint256)": "infinite",
				"owner()": "2536",
				"sell(uint256)": "infinite",
				"totalSupply()": "2482",
				"transfer(address,uint256)": "infinite"
			}
		},
		"methodIdentifiers": {
			"balanceOf(address)": "70a08231",
			"close()": "43d726d6",
			"getName()": "17d7de7c",
			"getPrice()": "98d5fdca",
			"getSymbol()": "15070401",
			"mint(address,uint256)": "40c10f19",
			"owner()": "8da5cb5b",
			"sell(uint256)": "e4849b32",
			"totalSupply()": "18160ddd",
			"transfer(address,uint256)": "a9059cbb"
		}
	},
	"abi": [
		{
			"inputs": [
				{
					"internalType": "string",
					"name": "name",
					"type": "string"
				},
				{
					"internalType": "string",
					"name": "symbol",
					"type": "string"
				},
				{
					"internalType": "uint256",
					"name": "maxTokenSupply",
					"type": "uint256"
				},
				{
					"internalType": "uint256",
					"name": "priceInWei",
					"type": "uint256"
				},
				{
					"internalType": "uint256",
					"name": "timeToWaitSeconds",
					"type": "uint256"
				}
			],
			"stateMutability": "nonpayable",
			"type": "constructor"
		},
		{
			"anonymous": false,
			"inputs": [
				{
					"indexed": true,
					"internalType": "address",
					"name": "to",
					"type": "address"
				},
				{
					"indexed": false,
					"internalType": "uint256",
					"name": "value",
					"type": "uint256"
				}
			],
			"name": "Mint",
			"type": "event"
		},
		{
			"anonymous": false,
			"inputs": [
				{
					"indexed": true,
					"internalType": "address",
					"name": "from",
					"type": "address"
				}
			],
			"name": "PaymentReceived",
			"type": "event"
		},
		{
			"anonymous": false,
			"inputs": [
				{
					"indexed": true,
					"internalType": "address",
					"name": "from",
					"type": "address"
				},
				{
					"indexed": false,
					"internalType": "uint256",
					"name": "value",
					"type": "uint256"
				}
			],
			"name": "Sell",
			"type": "event"
		},
		{
			"anonymous": false,
			"inputs": [
				{
					"indexed": true,
					"internalType": "address",
					"name": "from",
					"type": "address"
				},
				{
					"indexed": true,
					"internalType": "address",
					"name": "to",
					"type": "address"
				},
				{
					"indexed": false,
					"internalType": "uint256",
					"name": "value",
					"type": "uint256"
				}
			],
			"name": "Transfer",
			"type": "event"
		},
		{
			"stateMutability": "nonpayable",
			"type": "fallback"
		},
		{
			"inputs": [
				{
					"internalType": "address",
					"name": "_cAccount",
					"type": "address"
				}
			],
			"name": "balanceOf",
			"outputs": [
				{
					"internalType": "uint256",
					"name": "",
					"type": "uint256"
				}
			],
			"stateMutability": "view",
			"type": "function"
		},
		{
			"inputs": [],
			"name": "close",
			"outputs": [],
			"stateMutability": "nonpayable",
			"type": "function"
		},
		{
			"inputs": [],
			"name": "getName",
			"outputs": [
				{
					"internalType": "string",
					"name": "",
					"type": "string"
				}
			],
			"stateMutability": "view",
			"type": "function"
		},
		{
			"inputs": [],
			"name": "getPrice",
			"outputs": [
				{
					"internalType": "uint256",
					"name": "",
					"type": "uint256"
				}
			],
			"stateMutability": "view",
			"type": "function"
		},
		{
			"inputs": [],
			"name": "getSymbol",
			"outputs": [
				{
					"internalType": "string",
					"name": "",
					"type": "string"
				}
			],
			"stateMutability": "view",
			"type": "function"
		},
		{
			"inputs": [
				{
					"internalType": "address",
					"name": "_cAccount",
					"type": "address"
				},
				{
					"internalType": "uint256",
					"name": "_cTokenAmt",
					"type": "uint256"
				}
			],
			"name": "mint",
			"outputs": [
				{
					"internalType": "bool",
					"name": "",
					"type": "bool"
				}
			],
			"stateMutability": "nonpayable",
			"type": "function"
		},
		{
			"inputs": [],
			"name": "owner",
			"outputs": [
				{
					"internalType": "address payable",
					"name": "",
					"type": "address"
				}
			],
			"stateMutability": "view",
			"type": "function"
		},
		{
			"inputs": [
				{
					"internalType": "uint256",
					"name": "_cTokenAmt",
					"type": "uint256"
				}
			],
			"name": "sell",
			"outputs": [
				{
					"internalType": "bool",
					"name": "",
					"type": "bool"
				}
			],
			"stateMutability": "nonpayable",
			"type": "function"
		},
		{
			"inputs": [],
			"name": "totalSupply",
			"outputs": [
				{
					"internalType": "uint256",
					"name": "",
					"type": "uint256"
				}
			],
			"stateMutability": "view",
			"type": "function"
		},
		{
			"inputs": [
				{
					"internalType": "address",
					"name": "_cReceiver",
					"type": "address"
				},
				{
					"internalType": "uint256",
					"name": "_cTokenAmt",
					"type": "uint256"
				}
			],
			"name": "transfer",
			"outputs": [
				{
					"internalType": "bool",
					"name": "",
					"type": "bool"
				}
			],
			"stateMutability": "nonpayable",
			"type": "function"
		},
		{
			"stateMutability": "payable",
			"type": "receive"
		}
	]
}